S016000030312E4C45445F434F4E54524F4C2E737265632A
S113000045C0000060C000005EC000005CC000008D
S11300105AC0000058C0000056C0000054C0000080
S113002052C0000050C000004EC000004CC0000090
S11300304AC0000048C0000046C0000044C00000A0
S113004042C0000040C000003EC000003CC00000B0
S11300503AC0000038C0000036C0000034C00000C0
S113006032C0000030C000002EC000002CC00000D0
S11300702AC0000028C0000026C0000024C00000E0
S113008022C0000020C000001EC0000011241FBEBA
S1130090CFEFD0E1DEBFCDBF11E0A0E0B1E0E4ECF2
S11300A0F1E000E00BBF02C007900D92A230B1074F
S11300B0D9F721E0A2E0B1E001C01D92A630B20759
S11300C0E1F757D07DC09CCF81B3877881BB089579
S11300D020B3422F50E021E030E002C0220F331F52
S11300E06A95E2F72423352321153105A1F0FC019B
S11300F0EE5FFE4F408141110EC0EFE5FAEE3197FD
S1130100F1F700C00000FC01EE5FFE4F21E0208308
S113011080E090E00895FC01EE5FFE4F40814130A5
S113012079F4232B81F4FC01EE5FFE4F10828FE5FE
S11301309AEE0197F1F700C0000081E090E0089585
S113014080E090E0089580E090E008958FEF8ABB0E
S11301501BBA08958FEF8BBB08951BBA0895809145
S113016000018BBB089580910001869585758BBB3A
S11301700895AADFEBDFC0E0D0E063E070E080E048
S113018090E0A6DF892B99F02196C230D10541F089
S1130190C330D10539F0C130D10531F4E0DF07C0F7
S11301A0E2DF05C0D7DF03C0D8DFC0E0D0E065E000
S11301B070E082E090E08CDF892BF9F2CEDFDBCFB8
S10701C0F894FFCFDD
S10501C4AA008B
S9030000FC
