:1000000045C0000060C000005EC000005CC0000091
:100010005AC0000058C0000056C0000054C0000084
:1000200052C0000050C000004EC000004CC0000094
:100030004AC0000048C0000046C0000044C00000A4
:1000400042C0000040C0000006C200003CC00000EA
:100050003AC0000038C0000036C0000034C00000C4
:1000600032C0000030C000002EC000002CC00000D4
:100070002AC0000028C0000026C0000024C00000E4
:1000800022C0000020C000001EC0000011241FBEBE
:10009000CFEFD0E1DEBFCDBF11E0A0E0B1E0E0ECFA
:1000A000FCE000E00BBF02C007900D92AC37B10737
:1000B000D9F724E0ACE7B1E001C01D92A83AB2073D
:1000C000E1F7B6D1FBC59CCF9DEC899F912D112402
:1000D000969596959695392F330F232F220F220F41
:1000E000230F821B30E1939F800D11240895982FD8
:1000F00092959F70990F292F220F220F920F8F70C8
:10010000890F0895E2E6F0E080818E7F8083808110
:100110008160808380818E7F808308951F93CF9339
:10012000DF93182FE1E6F0E0808182608083C0E0F9
:10013000D0E017C0812F90E00C2E02C095958795D6
:100140000A94E2F780FF06C0E2E6F0E08081826078
:10015000808305C0E2E6F0E080818D7F8083D2DF7E
:100160002196C830D10534F3DF91CF911F910895C6
:10017000EF92FF921F93CF93DF937C01E1E6F0E0D3
:1001800080818D7F8083C0E0D0E010E010C0019BB3
:1001900009C081E090E00C2E02C0880F991F0A94DC
:1001A000E2F7182BC730D10529F0ACDF2196C83013
:1001B000D1056CF3F7011083DF91CF911F91FF9070
:1001C000EF9008950F931F93CF93DF931F92CDB7B6
:1001D000DEB7198202E610E0F80190819460908306
:1001E0008F5F9CDFCE010196C3DFF80180818B7F9A
:1001F000808389817CDF0F90DF91CF911F910F91D8
:100200000895CF93DF93EC0184E8DCDF8A8382E8F2
:10021000D9DF898380E8D6DF8883DF91CF91089585
:10022000CF93DF93EC018CE8CDDF8E8388E8CADFC3
:100230008C838AE8C7DF8D8386E8C4DF8B83DF91F8
:10024000CF9108951F93CF93DF93162FC2E6D0E08E
:1002500098819460988362DF812F36DF5FDF888129
:100260008B7F8883DF91CF911F910895CF93DF9388
:10027000EC01688180E8E6DF698182E8E3DF6A817A
:1002800084E8E0DF6B8186E8DDDF6C8188E8DADF17
:100290006D818AE8D7DF6E818CE8D4DFDF91CF9162
:1002A0000895EF92FF920F931F93CF93DF9300D0A7
:1002B00000D01F92CDB7DEB78C017D836C831B828B
:1002C000E62EF72EB8016A5F7F4F42E050E0CE0184
:1002D0000196EDD1C1D1F7018683B801685F7F4FE8
:1002E00042E050E0CE010196E2D1B6D1F70184831D
:1002F000B801665F7F4F42E050E0CE010196D7D152
:10030000ABD1F7018383B801645F7F4F42E050E0D7
:10031000CE010196CCD1A0D1F7018283B801625FF2
:100320007F4F42E050E0CE010196C1D195D1F70157
:100330008183EC80FD80B801605F7F4F42E050E038
:10034000CE010196B4D188D1F7018083CE01049605
:100350008DDF0F900F900F900F900F90DF91CF9146
:100360001F910F91FF90EF900895E1E6F0E08081FA
:10037000887F80838081876080830895E2E6F0E053
:100380008081887F80838FE39FE10197F1F700C030
:1003900000000895FC019AE1968386E084839383AC
:1003A000858389E0828382E3818310820895CF93DD
:1003B000DF93CDB7DEB729970FB6F894DEBF0FBE37
:1003C000CDBFD3DFCE010196E5DFD8DFCE010196A8
:1003D0004DDFCE010196D8D0CE01019612DFCE01BD
:1003E00001961EDF59814A813B812C819D818F813D
:1003F0001F925F931F924F931F923F931F922F93D1
:100400001F929F931F928F938EE091E09F938F9303
:1004100065D12FEF83ED90E3215080409040E1F7CC
:1004200000C000000FB6F894DEBF0FBECDBFD1CF25
:100430009CD080E091E09093A5048093A4047894EC
:10044000B6DF2FEF83ED90E3215080409040E1F73D
:1004500000C00000F5CF1F920F920FB60F9211242B
:100460000BB60F922F933F934F935F936F937F93AE
:100470008F939F93AF93BF93EF93FF93CF93DF93AC
:100480001F92CDB7DEB78CB18983809180019091A6
:10049000810101962AE030E0B901B7D0FC018091DA
:1004A0007E0190917F01B901B0D0E817F90709F4F6
:1004B00046C089818A3019F089818D3021F52091DB
:1004C00080013091810180917C0190917D0140E516
:1004D000429FF001439FF00D1124EE57FE4FE80FAD
:1004E000F91F108210927D0110927C018091800191
:1004F0009091810101966AE070E087D0909381012C
:10050000809380011CC06091800170918101809175
:100510007C0190917D019C012F5F3F4F30937D01C5
:1005200020937C01498150E5569F9001579F300DE3
:1005300011242E573E4FF901E80FF91F40830F9009
:10054000DF91CF91FF91EF91BF91AF919F918F91EB
:100550007F916F915F914F913F912F910F900BBEC3
:100560000F900FBE0F901F901895109290008FEC77
:1005700089B98BB182608BB98AB188698AB90895CB
:100580005D9BFECF8CB90895CF93DF9340917E01A0
:1005900050917F01209180013091810142175307D2
:1005A00089F1EC0120917E0130917F0140E5429F6D
:1005B000C001439F900D112446E050E06BE471E0D0
:1005C0008E579E4F66D0892B89F482E591E099D0B1
:1005D00020917E0130917F0140E5429FC001439F01
:1005E000900D1124BE018E579E4F5BDE80917E01DF
:1005F00090917F0101966AE070E007D090937F01AF
:1006000080937E01DF91CF91089597FB072E16F41A
:10061000009406D077FD08D00BD007FC05D03EF43F
:10062000909581959F4F0895709561957F4F08959E
:10063000AA1BBB1B51E107C0AA1FBB1FA617B70708
:1006400010F0A61BB70B881F991F5A95A9F7809524
:100650009095BC01CD010895FC0188279927E89465
:1006600021912032E9F3293010F02E30C8F32B32DB
:1006700039F02D3231F4689403C028D0820F911DD7
:10068000219120532A30C8F31EF4909581959F4FF5
:100690000895FB01DC014150504030F08D910190F4
:1006A000801919F40020B9F7881B990B0895FB01F4
:1006B000DC014150504048F001900D920020C9F7F4
:1006C00001C01D9241505040E0F708957AE0979F95
:1006D000902D879F802D910D11240895CF93DF9346
:1006E000CDB7DEB7AE014B5F5F4FFA0161917191FB
:1006F000AF018091A4049091A50433D0DF91CF91F4
:1007000008950F931F93CF93DF93E091A404F0918A
:10071000A504238121FF1BC08C01D0E0C0E0F801BB
:1007200081918F016091A4047091A504DB0118965A
:10073000ED91FC911997882331F00995892B79F374
:10074000DFEFCFEFECCF8AE00995892B19F08FEF1F
:100750009FEF02C08D2F9C2FDF91CF911F910F91A2
:1007600008952F923F924F925F926F927F928F9255
:100770009F92AF92BF92CF92DF92EF92FF920F9330
:100780001F93CF93DF93CDB7DEB72B970FB6F894B7
:10079000DEBF0FBECDBF6C017B018A01FC01178259
:1007A0001682838181FFBFC1CE0101963C01F60113
:1007B0009381F70193FD859193FF81917F018823B8
:1007C00009F4ADC1853239F493FD859193FF819190
:1007D0007F01853221F4B60190E0D6D1E8CF912C8B
:1007E000212C312CFFE1F315D8F08B3279F038F45D
:1007F000803279F08332A1F4232D20611DC08D3227
:1008000061F0803369F4232D216016C0832D82604E
:10081000382EE32DE4603E2E2AC0F32DF8601DC073
:1008200037FC2DC020ED280F2A3040F08E32B9F46D
:1008300036FC75C1232D2064322E19C036FE06C049
:100840008AE0989E200D1124922E11C0EAE02E9E7F
:10085000200D1124222EF32DF0623F2E08C08C367D
:1008600021F4832D8068382E02C0883641F4F701C8
:1008700093FD859193FF81917F018111B3CF982FD3
:100880009F7D9554933028F40C5F1F4F9FE399830D
:100890000DC0833631F0833771F0833509F055C0D0
:1008A00020C0F801808189830E5F1F4F88248394C4
:1008B000912C530112C02801F2E04F0E511CF80197
:1008C000A080B18036FE03C0692D70E002C06FEFDA
:1008D0007FEFC5014ED14C018201F32DFF773F2EF2
:1008E00015C0280122E0420E511CF801A080B18001
:1008F00036FE03C0692D70E002C06FEF7FEFC501C7
:100900002DD14C01F32DF0683F2E820133FC19C02C
:10091000822D90E088169906A0F4B60180E290E05E
:1009200033D12A94F5CFF50137FC859137FE8191BB
:100930005F01B60190E028D121102A9421E0821AAB
:1009400091088114910479F7E1C0843611F0893659
:1009500039F5F80137FE07C060817181828193818A
:100960000C5F1F4F08C060817181072E000C880B3F
:10097000990B0E5F1F4FF32DFF763F2E97FF09C097
:1009800090958095709561957F4F8F4F9F4FF06840
:100990003F2E2AE030E0A30133D1882E861844C0D0
:1009A000853731F4232D2F7EB22E2AE030E025C08A
:1009B000932D997FB92E8F36C1F018F4883579F0D0
:1009C000AEC0803719F0883721F0A9C0E92FE06167
:1009D000BE2EB4FE0DC0FB2DF460BF2E09C034FE48
:1009E0000AC0292F2660B22E06C028E030E005C0DC
:1009F00020E130E002C020E132E0F801B7FE07C09C
:100A000060817181828193810C5F1F4F06C060817C
:100A1000718180E090E00E5F1F4FA301F1D0882E1E
:100A20008618FB2DFF773F2E36FE0DC0232D2E7F1F
:100A3000A22E891458F434FE0BC032FC09C0832D59
:100A40008E7EA82E05C0B82CA32C03C0B82C01C0E4
:100A5000B92CA4FE0FC0FE01E80DF11D808180338A
:100A600021F49A2D997EA92E09C0A2FE06C0B39446
:100A7000B39404C08A2D867809F0B394A3FC10C007
:100A8000A0FE06C0B21480F4280C922C9B180DC056
:100A9000B21458F4B60180E290E076D0B394F8CF67
:100AA000B21418F42B1802C0982C212CA4FE0FC0ED
:100AB000B60180E390E068D0A2FE16C0A1FC03C09E
:100AC00088E790E002C088E590E0B6010CC08A2D6E
:100AD000867851F0A1FE02C08BE201C080E2A7FC43
:100AE0008DE2B60190E050D0891430F4B60180E375
:100AF00090E04AD09A94F8CF8A94F301E80DF11D62
:100B00008081B60190E040D08110F6CF222009F418
:100B10004ECEB60180E290E037D02A94F7CFF601AE
:100B20008681978102C08FEF9FEF2B960FB6F894C6
:100B3000DEBF0FBECDBFDF91CF911F910F91FF9010
:100B4000EF90DF90CF90BF90AF909F908F907F906D
:100B50006F905F904F903F902F900895FC0105900B
:100B6000615070400110D8F7809590958E0F9F1FAF
:100B70000895FC016150704001900110D8F78095F4
:100B800090958E0F9F1F08950F931F93CF93DF9320
:100B9000FB01238121FD03C08FEF9FEF2CC022FFBB
:100BA00016C046815781248135814217530744F48A
:100BB000A081B1819D012F5F3F4F318320838C93B2
:100BC000268137812F5F3F4F3783268314C08B01E7
:100BD000EC01FB010084F185E02D0995892BE1F6FC
:100BE000D80116968D919C911797019617969C9314
:100BF0008E931697CE01DF91CF911F910F9108959B
:100C0000FA01AA27283051F1203181F1E8946F933D
:100C10006E7F6E5F7F4F8F4F9F4FAF4FB1E03ED0E3
:100C2000B4E03CD0670F781F891F9A1FA11D680F81
:100C3000791F8A1F911DA11D6A0F711D811D911DB4
:100C4000A11D20D009F468943F912AE0269F112429
:100C50003019305D3193DEF6CF010895462F47708D
:100C6000405D4193B3E00FD0C9F7F6CF462F4F70E8
:100C7000405D4A3318F0495D31FD4052419302D046
:100C8000A9F7EACFB4E0A6959795879577956795EC
:100C9000BA95C9F700976105710508959B01AC01EC
:100CA0000A2E06945795479537952795BA95C9F713
:100CB000620F731F841F951FA01D0895F894FFCF26
:100CC0000000000200000000C002000000002564D7
:100CD000EB85842564EC9B942564EC9DBC20256405
:100CE000EC8B9C2564EBB6842564ECB4880A00ED9B
:100CF00086A000EC9DBC00EC9B9400ED999400EC68
:100D0000889800EBAAA900EAB88800736574727429
:100D10006300EBAA85EBA0B9EC96B420EBA7A4EC9A
:100D2000B9AD20EC84B1EAB3B52120ED8C8CEC8B0D
:0C0D3000B120EC8B9CEC9E912E2E2E002E
:00000001FF
