:1000000045C0000053C0000051C000004FC00000B8
:100010004DC000004BC0000049C0000047C00000B8
:1000200045C0000043C0000041C000003FC00000C8
:100030003DC000003BC0000039C0000037C00000D8
:1000400035C0000033C0000031C000002FC00000E8
:100050002DC000002BC0000029C0000027C00000F8
:1000600025C0000023C0000021C000001FC0000008
:100070001DC000001BC0000019C0000017C0000018
:1000800015C0000013C0000011C0000011241FBEE5
:10009000CFEFD0E1DEBFCDBF21E0A0E0B1E001C0F5
:1000A0001D92A430B207E1F7A0D0B8C0A9CF81B3A8
:1000B000877881BB089520B3422F50E021E030E0E3
:1000C00002C0220F331F6A95E2F72423352321153E
:1000D0003105A1F0FC01E050FF4F408141110EC0FD
:1000E000EFE5FAEE3197F1F700C00000FC01E050B7
:1000F000FF4F21E0208380E090E00895FC01E05074
:10010000FF4F4081413079F4232B81F4FC01E05012
:10011000FF4F10828FE59AEE0197F1F700C00000C3
:1001200081E090E0089580E090E0089580E090E024
:1001300008958FEF8ABB1BBA08951BBA089520E07B
:1001400030E021C04BB380E190E0022E02C0880F66
:10015000991F0A94E2F7842B8BBB4BB388E090E0A5
:10016000022E02C0959587950A94E2F7842B8BBBEB
:100170004FEF85EA9EE0415080409040E1F700C09B
:1001800000002F5F3F4F24303105E4F2089520E056
:1001900030E023C04BB380E890E0022E02C095957A
:1001A00087950A94E2F7809584238BBB4BB381E05B
:1001B00090E0022E02C0880F991F0A94E2F7809502
:1001C00084238BBB4FEF85EA9EE0415080409040F6
:1001D000E1F700C000002F5F3F4F24303105D4F21B
:1001E0000895ABDFACDFD3DFFDCF61DFA2DF00E03E
:1001F00010E001C08E0163E070E080E090E05BDF22
:10020000892BC9F3C1E00115110509F0C0E0D0E068
:10021000012B11F4E6DFEECF90DFECCFF894FFCFA7
:00000001FF
