S019000030322E464E445F434F4E54524F4C5F4D592E737265631E
S113000045C0000060C000005EC000005CC000008D
S11300105AC0000058C0000056C0000054C0000080
S113002052C0000050C000004EC000004CC0000090
S11300304AC0000048C0000046C0000044C00000A0
S113004042C0000040C000003EC000003CC00000B0
S11300503AC0000038C0000036C0000034C00000C0
S113006032C0000030C000002EC000002CC00000D0
S11300702AC0000028C0000026C0000024C00000E0
S113008022C0000020C000001EC0000011241FBEBA
S1130090CFEFD0E1DEBFCDBF11E0A0E0B1E0E6EFED
S11300A0F6E000E00BBF02C007900D92AC31B1073F
S11300B0D9F721E0ACE1B1E001C01D92A734B20749
S11300C0E1F7A0D216C39CCF81B3877881BB089592
S11300D020B3422F50E021E030E002C0220F331F52
S11300E06A95E2F72423352321153105A1F0FC019B
S11300F0E45EFE4F408141110EC0EFE5FAEE319708
S1130100F1F700C00000FC01E45EFE4F21E0208313
S113011080E090E00895FC01E45EFE4F40814130B0
S113012079F4232B81F4FC01E45EFE4F10828FE509
S11301309AEE0197F1F700C0000081E090E0089585
S113014080E090E0089580E090E008959FEF94BBF4
S113015087B3806F87BB95BB0895809126019091EA
S113016027018130910501F11CF4892B41F06FC006
S113017082309105A9F1039709F44EC068C080E864
S113018088BB6091390170913A0180913B01909153
S11301903C012AE030E040E050E075D2FB01E05F32
S11301A0FE4F808185BB53C080E488BB60913901D8
S11301B070913A0180913B0190913C012AE030E03A
S11301C040E050E060D2CA01B90126E030E040E0EE
S11301D050E059D2FB01E05FFE4F808185BB37C000
S11301E080E288BB6091390170913A0180913B01B2
S11301F090913C012CE330E040E050E044D2CA014D
S1130200B9012AE030E040E050E03DD2FB01E05F7C
S1130210FE4F808185BB1BC080E188BB60913901A2
S113022070913A0180913B0190913C0128E532E0C4
S113023040E050E028D2CA01B90126E030E040E0B5
S113024050E021D2FB01E05FFE4F808185BB8091AD
S1130250260190912701019683709078992324F4C4
S113026001978C6F9F6F01969093270180932601CD
S1130270089580912401909125018130910501F127
S11302801CF4892B41F05FC082309105A9F10397DA
S113029009F446C058C080E888BB60913901709168
S11302A03A0180913B0190913C012AE030E040E02A
S11302B050E0E9D1FB01E05FFE4F808185BB43C084
S11302C080E488BB6091390170913A0180913B01CF
S11302D090913C012AE030E040E050E0D4D1CA01E2
S11302E0B90126E030E040E050E0CDD1FB01E05F11
S11302F0FE4F808185BB27C080E288BB8091390195
S113030090913A01A0913B01B0913C0187709927EB
S1130310AA27BB27FC01E050FF4F808185BB13C097
S113032080E188BB8091390190913A01A0913B0111
S1130330B0913C0187709927AA27BB27FC01E85F8D
S1130340FE4F808185BB8091240190912501019607
S113035083709078992324F401978C6F9F6F019692
S11303609093250180932401089580912201909116
S1130370230181309105A9F01CF4892B39F031C097
S113038082309105C9F0039711F12BC080E888BB36
S1130390E0912801F0912901E05FFE4F808185BB47
S11303A020C080E488BBE0912C01F0912D01E05F36
S11303B0FE4F808185BB15C080E288BBE09130018F
S11303C0F0913101E05FFE4F808185BB0AC080E17E
S11303D088BBE0913401F0913501E05FFE4F8081EC
S11303E085BB8091220190912301019683709078BE
S11303F0992324F401978C6F9F6F019690932301A6
S11304008093220108958F929F92AF92BF92CF92D0
S1130410DF92EF92FF92CF93DF93EC01813091054D
S113042039F08230910531F0892B29F496DE03C02E
S113043020DF01C09ADF8FE99FE00197F1F700C048
S11304400000C0903D01D0903E01E0903F01F0904B
S113045040019FEFC91AD90AE90AF90AC0923D017D
S1130460D0923E01E0923F01F0924001229709F0C0
S113047057C08091410190914201A0914301B091F4
S1130480440180379741A105B10540F01092410124
S1130490109242011092430110924401C701B60127
S11304A028EE33E040E050E0EED020933401309366
S11304B035014093360150933701C701B60124E654
S11304C030E040E050E0DFD04B015C010F2EFAE059
S11304D0CF2ED12CE12CF12CF02DCA01B901A701AA
S11304E09601D1D060933001709331018093320131
S11304F090933301C501B401A7019601C4D02093A0
S11305002C0130932D0140932E0150932F016093C1
S113051028017093290180932A0190932B0129C00B
S113052088EEC81683E0D806E104F10410F11092B5
S11305303D0110923E0110923F01109240018091C2
S1130540390190913A01A0913B01B0913C0101968F
S1130550A11DB11D8093390190933A01A0933B01F1
S1130560B0933C0181E090913801911180E0809337
S1130570380180E090E0DF91CF91FF90EF90DF9021
S1130580CF90BF90AF909F908F9008950895089555
S113059080912001909121018130910581F01CF41A
S11305A0892B39F01DC08230910579F0039799F0B9
S11305B017C080E888BB8091100185BB11C080E41E
S11305C088BB8091100185BB0BC080E288BB809101
S11305D0000185BB05C080E188BB8091080185BB13
S11305E08091200190912101019683709078992344
S11305F024F401978C6F9F6F01969093210180934F
S11306002001089561DDA2DD63E070E080E090E008
S11306105FDD892B79F08091450190914601019627
S113062063E070E01DD090934601809345010297EA
S113063009F4AEDF8091450190914601E4DE64E067
S113064070E081E090E044DD892B09F0A0DF65E0F3
S113065070E082E090E03CDD892BB1F297DFD4CFEB
S113066097FB072E16F4009406D077FD08D02DD002
S113067007FC05D03EF4909581959F4F08957095A1
S113068061957F4F0895A1E21A2EAA1BBB1BFD01A1
S11306900DC0AA1FBB1FEE1FFF1FA217B307E4075D
S11306A0F50720F0A21BB30BE40BF50B661F771FB5
S11306B0881F991F1A9469F7609570958095909595
S11306C09B01AC01BD01CF010895AA1BBB1B51E1E5
S11306D007C0AA1FBB1FA617B70710F0A61BB70BAE
S11306E0881F991F5A95A9F780959095BC01CD0153
S10906F00895F894FFCF09
S11306F6FFFEFDFBF7FFFFFFFEFFFFFFFFF7EFDF48
S10F0706C0F9A4B0999282D880987F00BA
S9030000FC
