S014000031312E4B45595041445F4D592E73726563BD
S113000045C0000060C000005EC000005CC000008D
S11300105AC0000058C0000056C0000054C0000080
S113002052C0000050C000004EC000004CC0000090
S11300304AC0000048C0000046C0000044C00000A0
S1130040C8C2000040C0000094C300003CC00000CF
S11300503AC0000038C0000036C0000034C00000C0
S113006032C0000030C000002EC000002CC00000D0
S11300702AC0000028C0000026C0000024C00000E0
S113008022C0000020C000001EC0000011241FBEBA
S1130090CFEFD0E1DEBFCDBF11E0A0E0B1E0E6EDEF
S11300A0FEE000E00BBF02C007900D92A236B1073C
S11300B0D9F725E0A2E6B1E001C01D92A033B20752
S11300C0E1F7EAD206C79CCFCF93DF93EC01DF932D
S11300D0CF9386E391E09F938F930BD40F900F906F
S11300E00F900F90ED97B9F4809165018F938091F3
S11300F064018F93809163018F93809162018F9348
S11301008AE391E09F938F93F4D30F900F900F9015
S11301100F900F900F90DF91CF9108958B3249F09B
S11301208D3251F08A3259F08F3261F482E090E0DE
S1130130089581E090E0089581E090E0089582E0E0
S113014090E0089580E090E008958F929F92AF929E
S1130150BF92CF92DF92EF92FF920F931F93CF93B0
S1130160DF93182F80ED810F8A3088F58091660126
S113017090916701A0916801B0916901880F991F5E
S1130180AA1FBB1F6C017D01CC0CDD1CEE1CFF1CE7
S1130190CC0CDD1CEE1CFF1CAC01BD014C0D5D1D27
S11301A06E1D7F1D212F30E0C901C097092E000C60
S11301B0AA0BBB0B840F951FA61FB71F8093660164
S11301C090936701A0936801B093690149C11B3200
S11301D039F01D3229F01A3219F01F3209F096C095
S11301E08091020190910301019690930301809301
S11301F00201880F991F880F991FFC01E258FE4FD6
S11302008091660190916701A0916801B0916901A4
S113021080839183A283B383109266011092670155
S1130220109268011092690153C02197D093010183
S1130230C093000140910201509103019A012150A1
S11302403109440F551F440F551FFA01E258FE4F60
S11302504081518162817381F901EE0FFF1FEE0F1E
S1130260FF1FE258FE4FC080D180E280F380C601B8
S11302700B3219F4840F951F18C00D3221F4C601F6
S1130280841B950B12C00A3241F4C49EC001C59E62
S1130290900DD49E900D112408C00F3221F4BA01A0
S11302A001D3CB0102C080E090E03093030120939E
S11302B00201220F331F220F331FF901E258FE4FB0
S11302C0092E000CAA0BBB0B80839183A283B383FA
S11302D0C0910001D0910101CF3F2FEFD20769F007
S11302E0FE01EC58FE4F0081802F18DF7C01812F26
S11302F015DFE816F9060CF098CF2196D09301018A
S1130300C0930001CC58DE4F1883AAC01D3309F0F6
S1130310A7C080910201909103010196909303017B
S113032080930201880F991F880F991FFC01E258DE
S1130330FE4F8091660190916701A0916801B09190
S1130340690180839183A283B38310926601109222
S11303506701109268011092690159C09C012150F3
S113036031093093010120930001FC01EC58FE4F48
S1130370408180910201909103019C012150310937
S1130380880F991F880F991FFC01E258FE4FC08007
S1130390D180E280F380B601F901EE0FFF1FEE0F6A
S11303A0FF1FE258FE4F80809180A280B380C40179
S11303B04B3221F4B4016C0D7D1D16C04D3221F475
S11303C0B4016C197D0910C04A3241F48C9CB0010F
S11303D08D9C700D9C9C700D112406C04F3211F43D
S11303E061D202C060E070E0309303012093020107
S11303F0220F331F220F331FF901E258FE4FCB01A6
S1130400770FAA0BBB0B80839183A283B383809164
S11304100001909101018F3F2FEF920709F09ECFC9
S1130420E0910201F0910301EE0FFF1FEE0FFF1F99
S1130430E258FE4F80819181A281B3818093620151
S113044090936301A0936401B09365018FEF9FEFD4
S11304509093030180930201909301018093000122
S1130460DF91CF911F910F91FF90EF90DF90CF908C
S1130470BF90AF909F908F9008958FE08ABB8FEFCD
S11304808BBB0895CF93DF93CDB7DEB760970FB6DC
S1130490F894DEBF0FBECDBF20E1E6E2F1E0DE015D
S11304A0119601900D922A95E1F72FEF2BBB4BB3D8
S11304B0E3E0F0E0E61BF70B21E030E002C0220F9E
S11304C0331FEA95E2F7209524232BBB20E030E08C
S11304D002C02F5F3F4F24313105DCF349B3FC01E7
S11304E0349621E030E00E2E02C0220F331F0A940E
S11304F0E2F750E02423352302C035952795EA9589
S1130500E2F7211118C0FC01EE0FFF1FEE0FFF1FD1
S1130510EC5FFE4FE60FF71F3081313061F4880F36
S1130520991F880F991F8C5F9E4FFC01E60FF71FE0
S1130530108280E027C0213011F5FC01EE0FFF1F6F
S1130540EE0FFF1FEC5FFE4FE60FF71F2081211116
S113055018C0880F991F880F991FFC01EC5FFE4F8C
S1130560E60FF71F21E0208321E030E02C0F3D1F30
S1130570820F931FFC01E60FF71F808103C080E008
S113058001C080E060960FB6F894DEBF0FBECDBF09
S1130590DF91CF9108950F931F93CF93DF9300E0E2
S11305A010E00EC0BE01C8016DDF81110DC021969F
S11305B002C0C0E0D0E0C430D105A4F30F5F1F4FE8
S11305C004301105B4F380E0DF91CF911F910F91B6
S11305D008951F920F920FB60F9211240BB60F922B
S11305E02F933F934F935F936F937F938F939F9337
S11305F0AF93BF93EF93FF93CF93DF931F92CDB746
S1130600DEB7198286E082BF80916A0190916B0106
S1130610A0916C01B0916D010196A11DB11D809353
S11306206A0190936B01A0936C01B0936D01CC9718
S1130630A105B10578F010926A0110926B01109235
S11306406C0110926D01A7DF89838981882311F0E1
S1130650898174D00F90DF91CF91FF91EF91BF9179
S1130660AF919F918F917F916F915F914F913F9146
S11306702F910F900BBE0F900FBE0F901F901895E7
S113068086E082BF83B7887F83BF83B7846083BFDC
S113069087B7816087BF0895F6D0F2DFEEDE7894E5
S11306A084E191E090932D0580932C051ED0892B35
S11306B0E9F72CD0C82F49DD8C2F90E005DDF6CF6B
S11306C08091220190912301019664E670E0EAD0C2
S11306D020912401309125018217930719F481E0B8
S11306E090E0089580E090E00895209122013091F7
S11306F0230180912401909125012817390719F4C9
S113070081E090E0089580E090E00895EEDF892B89
S113071021F080E491E000C108958091240190913A
S11307202501019664E670E0BDD090932501809385
S11307302401FC01EA55FE4F80810895CF93C82F10
S1130740BFDF892B21F083E591E0E6D010C08091D2
S1130750220190912301019664E670E0A3D0909366
S1130760230180932201FC01EA55FE4FC083CF91FF
S113077008951F920F920FB60F9211240BB60F9289
S11307802F933F934F935F936F937F938F939F9395
S1130790AF93BF93EF93FF93CF93DF931F92CDB7A4
S11307A0DEB78CB1898380917201909173010196B7
S11307B02AE030E0B90176D0FC018091700190917B
S11307C07101B9016FD0E817F90709F446C08981AE
S11307D08A3019F089818D3021F520917201309190
S11307E0730180916E0190916F0140E5429FF00189
S11307F0439FF00D1124E65FFD4FE80FF91F1082AF
S113080010926F0110926E018091720190917301A8
S113081001966AE070E046D0909373018093720170
S11308201CC0609172017091730180916E0190916E
S11308306F019C012F5F3F4F30936F0120936E0136
S1130840498150E5569F9001579F300D1124265F32
S11308503D4FF901E80FF91F40830F90DF91CF91CD
S1130860FF91EF91BF91AF919F918F917F916F9184
S11308705F914F913F912F910F900BBE0F900FBE40
S11308800F901F901895109290008FEC89B98BB13E
S113089082608BB98AB188698AB908955D9BFECF5D
S11308A08CB9089597FB072E16F4009406D077FDB3
S11308B008D00BD007FC05D03EF4909581959F4F4E
S11308C00895709561957F4F0895AA1BBB1B51E154
S11308D007C0AA1FBB1FA617B70710F0A61BB70BAC
S11308E0881F991F5A95A9F780959095BC01CD0151
S11308F00895CF93DF93CDB7DEB7AE014B5F5F4F63
S1130900FA0161917191AF0180912C0590912D05AF
S113091033D0DF91CF9108950F931F93CF93DF933B
S1130920E0912C05F0912D05238121FF1BC08C0142
S1130930D0E0C0E0F80181918F0160912C057091A5
S11309402D05DB011896ED91FC911997882331F060
S11309500995892B79F3DFEFCFEFECCF8AE0099586
S1130960892B19F08FEF9FEF02C08D2F9C2FDF9101
S1130970CF911F910F9108952F923F924F925F92C2
S11309806F927F928F929F92AF92BF92CF92DF929B
S1130990EF92FF920F931F93CF93DF93CDB7DEB700
S11309A02B970FB6F894DEBF0FBECDBF6C017B0151
S11309B08A01FC0117821682838181FFBFC1CE01A7
S11309C001963C01F6019381F70193FD859193FF14
S11309D081917F01882309F4ADC1853239F493FDF7
S11309E0859193FF81917F01853221F4B60190E0D6
S11309F0D6D1E8CF912C212C312CFFE1F315D8F07E
S1130A008B3279F038F4803279F08332A1F4232DDB
S1130A1020611DC08D3261F0803369F4232D216083
S1130A2016C0832D8260382EE32DE4603E2E2AC04A
S1130A30F32DF8601DC037FC2DC020ED280F2A309F
S1130A4040F08E32B9F436FC75C1232D2064322E69
S1130A5019C036FE06C08AE0989E200D1124922EFD
S1130A6011C0EAE02E9E200D1124222EF32DF062F7
S1130A703F2E08C08C3621F4832D8068382E02C0A6
S1130A80883641F4F70193FD859193FF81917F01AD
S1130A908111B3CF982F9F7D9554933028F40C5F28
S1130AA01F4F9FE399830DC0833631F0833771F074
S1130AB0833509F055C020C0F801808189830E5F19
S1130AC01F4F88248394912C530112C02801F2E013
S1130AD04F0E511CF801A080B18036FE03C0692D71
S1130AE070E002C06FEF7FEFC5014ED14C0182016F
S1130AF0F32DFF773F2E15C0280122E0420E511C32
S1130B00F801A080B18036FE03C0692D70E002C0F8
S1130B106FEF7FEFC5012DD14C01F32DF0683F2E0F
S1130B20820133FC19C0822D90E088169906A0F446
S1130B30B60180E290E033D12A94F5CFF50137FC79
S1130B40859137FE81915F01B60190E028D1211093
S1130B502A9421E0821A91088114910479F7E1C062
S1130B60843611F0893639F5F80137FE07C0608103
S1130B707181828193810C5F1F4F08C060817181F4
S1130B80072E000C880B990B0E5F1F4FF32DFF7679
S1130B903F2E97FF09C090958095709561957F4F82
S1130BA08F4F9F4FF0683F2E2AE030E0A30133D1EE
S1130BB0882E861844C0853731F4232D2F7EB22E1B
S1130BC02AE030E025C0932D997FB92E8F36C1F0ED
S1130BD018F4883579F0AEC0803719F0883721F0E1
S1130BE0A9C0E92FE061BE2EB4FE0DC0FB2DF46058
S1130BF0BF2E09C034FE0AC0292F2660B22E06C0BB
S1130C0028E030E005C020E130E002C020E132E01D
S1130C10F801B7FE07C060817181828193810C5F06
S1130C201F4F06C06081718180E090E00E5F1F4F0E
S1130C30A301F1D0882E8618FB2DFF773F2E36FEB8
S1130C400DC0232D2E7FA22E891458F434FE0BC020
S1130C5032FC09C0832D8E7EA82E05C0B82CA32C8F
S1130C6003C0B82C01C0B92CA4FE0FC0FE01E80DCE
S1130C70F11D8081803321F49A2D997EA92E09C01B
S1130C80A2FE06C0B394B39404C08A2D867809F0FA
S1130C90B394A3FC10C0A0FE06C0B21480F4280CC8
S1130CA0922C9B180DC0B21458F4B60180E290E067
S1130CB076D0B394F8CFB21418F42B1802C0982C41
S1130CC0212CA4FE0FC0B60180E390E068D0A2FE00
S1130CD016C0A1FC03C088E790E002C088E590E05C
S1130CE0B6010CC08A2D867851F0A1FE02C08BE2B9
S1130CF001C080E2A7FC8DE2B60190E050D08914D7
S1130D0030F4B60180E390E04AD09A94F8CF8A9404
S1130D10F301E80DF11D8081B60190E040D081100F
S1130D20F6CF222009F44ECEB60180E290E037D00F
S1130D302A94F7CFF6018681978102C08FEF9FEF47
S1130D402B960FB6F894DEBF0FBECDBFDF91CF91C7
S1130D501F910F91FF90EF90DF90CF90BF90AF90D5
S1130D609F908F907F906F905F904F903F902F90C7
S1130D700895FC010590615070400110D8F78095EA
S1130D8090958E0F9F1F0895FC0161507040019053
S1130D900110D8F7809590958E0F9F1F08950F939B
S1130DA01F93CF93DF93FB01238121FD03C08FEFBA
S1130DB09FEF2CC022FF16C04681578124813581C4
S1130DC04217530744F4A081B1819D012F5F3F4F27
S1130DD0318320838C93268137812F5F3F4F378364
S1130DE0268314C08B01EC01FB010084F185E02D06
S1130DF00995892BE1F6D80116968D919C91179748
S1130E00019617969C938E931697CE01DF91CF91FE
S1130E101F910F910895FA01AA27283051F120312A
S1130E2081F1E8946F936E7F6E5F7F4F8F4F9F4F7A
S1130E30AF4FB1E03ED0B4E03CD0670F781F891FBC
S1130E409A1FA11D680F791F8A1F911DA11D6A0F8A
S1130E50711D811D911DA11D20D009F468943F913D
S1130E602AE0269F11243019305D3193DEF6CF013C
S1130E700895462F4770405D4193B3E00FD0C9F702
S1130E80F6CF462F4F70405D4A3318F0495D31FD6F
S1130E904052419302D0A9F7EACFB4E0A6959795C2
S1130EA0879577956795BA95C9F700976105710598
S1130EB008959B01AC010A2E0694579547953795E2
S1130EC02795BA95C9F7620F731F841F951FA01D3C
S1090ED00895F894FFCF21
S1130ED6FFFFFFFF01010101010101010101010100
S1130EE60101010100000002000000004E040000A0
S1130EF60000FFFFFFFF20303D2B3435362A3738FC
S1130F06392D3132332F2563200020256C640A00E5
S1130F16517565756520697320656D707479202136
S1130F2621210071756575652066756C6C2121211A
S1050F36210094
S9030000FC
