:1000000045C0000060C000005EC000005CC0000091
:100010005AC0000083C1000056C0000054C0000058
:1000200052C0000050C000004EC000004CC0000094
:100030004AC0000048C0000046C0000044C00000A4
:100040008BC0000040C00000D0C000003CC00000D9
:100050003AC0000038C0000036C0000034C00000C4
:1000600032C0000030C000002EC000002CC00000D4
:100070002AC0000028C0000026C0000024C00000E4
:1000800022C0000020C000001EC0000011241FBEBE
:10009000CFEFD0E1DEBFCDBF11E0A0E0B1E0E2E103
:1000A000FBE000E00BBF02C007900D92A032B10749
:1000B000D9F724E0A0E2B1E001C01D92A638B20752
:1000C000E1F786D024C59CCF8FEF8ABB1BBA089579
:1000D0008FEF8BBB089540912201509123016091D5
:1000E000240170912501443651056105710598F18F
:1000F00010922201109223011092240110922501E6
:100100001BBA833091051CF481E08BBB08958430C9
:1001100091051CF483E08BBB0895853091051CF498
:1001200087E08BBB0895863091051CF48FE08BBB74
:100130000895873091051CF48FE18BBB08958830BA
:1001400091051CF48FE38BBB08950B971CF48FE78C
:100150008BBB0895BDCF08951F920F920FB60F92DB
:1001600011248F939F93AF93BF9386E082BF8091BA
:10017000220190912301A0912401B09125010196C3
:10018000A11DB11D8093220190932301A09324010E
:10019000B0932501809120019091210101969093C7
:1001A000210180932001BF91AF919F918F910F907A
:1001B0000FBE0F901F90189586E082BF83B7887F8F
:1001C00083BF83B7846083BF87B7816087BF08958B
:1001D0007BDFF2DF94D0F6D080E091E0909383044F
:1001E00080938204789418D1FECF1F920F920FB69D
:1001F0000F9211240BB60F922F933F934F935F935F
:100200006F937F938F939F93AF93BF93EF93FF93DE
:10021000CF93DF931F92CDB7DEB78CB189838091E6
:100220002A0190912B0101962AE030E0B9011FD1FB
:10023000FC018091280190912901B90118D1E8179A
:10024000F90709F446C089818A3019F089818D3017
:1002500021F520912A0130912B0180912601909166
:10026000270140E5429FF001439FF00D1124E25D1C
:10027000FE4FE80FF91F10821092270110922601FD
:1002800080912A0190912B0101966AE070E0EFD0F5
:1002900090932B0180932A011CC060912A017091D8
:1002A0002B0180912601909127019C012F5F3F4FE8
:1002B0003093270120932601498150E5569F9001F4
:1002C000579F300D1124225D3E4FF901E80FF91FB1
:1002D00040830F90DF91CF91FF91EF91BF91AF914C
:1002E0009F918F917F916F915F914F913F912F914E
:1002F0000F900BBE0F900FBE0F901F90189510928D
:1003000090008FEC89B98BB182608BB98AB1886912
:100310008AB908955D9BFECF8CB908951F920F9204
:100320000FB60F9211240BB60F922F933F934F935A
:100330005F936F937F938F939F93AF93BF93EF934D
:10034000FF93149B03C01DBC1CBC29C0ACB5BDB53C
:1003500020E030E049E05DE3BFD020E038E240E556
:1003600057E398D030932D0120932C0180912C01DC
:1003700090912D019F938F9380E191E09F938F93B4
:100380008EE494E09F938F93E7D010920F01109228
:100390000E010F900F900F900F900F900F90FF9104
:1003A000EF91BF91AF919F918F917F916F915F91ED
:1003B0004F913F912F910F900BBE0F900FBE0F905A
:1003C0001F901895E4E6F0E080818061808382B11F
:1003D0008F7E82B98AB781608ABF8EB585608EBDF7
:1003E00089B7806189BF0895E5E6F0E080818F7E5E
:1003F00080838FE99FE00197F1F700C000008081C2
:10040000806180838FE59AEE0197F1F700C00000CC
:1004100080818F7E808308958091200190912101B9
:10042000883E93401CF110922101109220018EE42D
:1004300094E09F938F938CE191E09F938F9379D079
:1004400080912C0190912D0146DE80910E019091BA
:100450000F010F900F900F900F90892B39F4C4DF8C
:1004600081E090E090930F0180930E01089597FB37
:10047000072E16F4009406D077FD08D037D007FC7D
:1004800005D03EF4909581959F4F089570956195A4
:100490007F4F0895A1E21A2EAA1BBB1BFD010DC0C0
:1004A000AA1FBB1FEE1FFF1FA217B307E407F50724
:1004B00020F0A21BB30BE40BF50B661F771F881F00
:1004C000991F1A9469F760957095809590959B0196
:1004D000AC01BD01CF0108951DD0A59F900DB49F23
:1004E000900DA49F800D911D11240895AA1BBB1B84
:1004F00051E107C0AA1FBB1FA617B70710F0A61B24
:10050000B70B881F991F5A95A9F780959095BC0144
:10051000CD010895A29FB001B39FC001A39F700DAC
:10052000811D1124911DB29F700D811D1124911DFB
:100530000895CF93DF93CDB7DEB7AE014B5F5F4F2A
:10054000FA0161917191AF018091820490918304CD
:1005500031D0DF91CF9108950F931F93CF93DF9305
:10056000CDB7DEB72E970FB6F894DEBF0FBECDBF66
:100570000D891E8986E08C831A8309838FEF9FE79C
:100580009E838D83AE01475E5F4F6F89788DCE016C
:10059000019610D0EF81F885E00FF11F10822E96A2
:1005A0000FB6F894DEBF0FBECDBFDF91CF911F9184
:1005B0000F9108952F923F924F925F926F927F9288
:1005C0008F929F92AF92BF92CF92DF92EF92FF9263
:1005D0000F931F93CF93DF93CDB7DEB72B970FB653
:1005E000F894DEBF0FBECDBF6C017B018A01FC0118
:1005F00017821682838181FFBFC1CE0101963C0123
:10060000F6019381F70193FD859193FF81917F011D
:10061000882309F4ADC1853239F493FD859193FFA8
:1006200081917F01853221F4B60190E0D6D1E8CFE7
:10063000912C212C312CFFE1F315D8F08B3279F07D
:1006400038F4803279F08332A1F4232D20611DC06B
:100650008D3261F0803369F4232D216016C0832D23
:100660008260382EE32DE4603E2E2AC0F32DF86020
:100670001DC037FC2DC020ED280F2A3040F08E32EF
:10068000B9F436FC75C1232D2064322E19C036FE14
:1006900006C08AE0989E200D1124922E11C0EAE037
:1006A0002E9E200D1124222EF32DF0623F2E08C025
:1006B0008C3621F4832D8068382E02C0883641F4B0
:1006C000F70193FD859193FF81917F018111B3CF54
:1006D000982F9F7D9554933028F40C5F1F4F9FE314
:1006E00099830DC0833631F0833771F0833509F07B
:1006F00055C020C0F801808189830E5F1F4F882478
:100700008394912C530112C02801F2E04F0E511C2A
:10071000F801A080B18036FE03C0692D70E002C0F0
:100720006FEF7FEFC5014ED14C018201F32DFF77B2
:100730003F2E15C0280122E0420E511CF801A08076
:10074000B18036FE03C0692D70E002C06FEF7FEF0D
:10075000C5012DD14C01F32DF0683F2E820133FCF1
:1007600019C0822D90E088169906A0F4B60180E2A7
:1007700090E033D12A94F5CFF50137FC859137FE0F
:1007800081915F01B60190E028D121102A9421E0E7
:10079000821A91088114910479F7E1C0843611F02E
:1007A000893639F5F80137FE07C060817181828191
:1007B00093810C5F1F4F08C060817181072E000C70
:1007C000880B990B0E5F1F4FF32DFF763F2E97FF7F
:1007D00009C090958095709561957F4F8F4F9F4F81
:1007E000F0683F2E2AE030E0A30133D1882E86182E
:1007F00044C0853731F4232D2F7EB22E2AE030E01D
:1008000025C0932D997FB92E8F36C1F018F4883505
:1008100079F0AEC0803719F0883721F0A9C0E92FF0
:10082000E061BE2EB4FE0DC0FB2DF460BF2E09C0EA
:1008300034FE0AC0292F2660B22E06C028E030E020
:1008400005C020E130E002C020E132E0F801B7FE4F
:1008500007C060817181828193810C5F1F4F06C048
:100860006081718180E090E00E5F1F4FA301F1D0A5
:10087000882E8618FB2DFF773F2E36FE0DC0232DC8
:100880002E7FA22E891458F434FE0BC032FC09C00E
:10089000832D8E7EA82E05C0B82CA32C03C0B82CA7
:1008A00001C0B92CA4FE0FC0FE01E80DF11D80812E
:1008B000803321F49A2D997EA92E09C0A2FE06C08C
:1008C000B394B39404C08A2D867809F0B394A3FC42
:1008D00010C0A0FE06C0B21480F4280C922C9B1805
:1008E0000DC0B21458F4B60180E290E076D0B39413
:1008F000F8CFB21418F42B1802C0982C212CA4FEA7
:100900000FC0B60180E390E068D0A2FE16C0A1FC43
:1009100003C088E790E002C088E590E0B6010CC013
:100920008A2D867851F0A1FE02C08BE201C080E2E0
:10093000A7FC8DE2B60190E050D0891430F4B601E6
:1009400080E390E04AD09A94F8CF8A94F301E80DBE
:10095000F11D8081B60190E040D08110F6CF2220B9
:1009600009F44ECEB60180E290E037D02A94F7CF5A
:10097000F6018681978102C08FEF9FEF2B960FB60D
:10098000F894DEBF0FBECDBFDF91CF911F910F91C5
:10099000FF90EF90DF90CF90BF90AF909F908F909F
:1009A0007F906F905F904F903F902F900895FC0143
:1009B0000590615070400110D8F7809590958E0F8A
:1009C0009F1F0895FC016150704001900110D8F7FD
:1009D000809590958E0F9F1F08950F931F93CF932F
:1009E000DF93FB01238121FD03C08FEF9FEF2CC01C
:1009F00022FF16C046815781248135814217530753
:100A000044F4A081B1819D012F5F3F4F318320834A
:100A10008C93268137812F5F3F4F3783268314C005
:100A20008B01EC01FB010084F185E02D0995892BF8
:100A3000E1F6D80116968D919C911797019617961D
:100A40009C938E931697CE01DF91CF911F910F91BA
:100A50000895FA01AA27283051F1203181F1E89454
:100A60006F936E7F6E5F7F4F8F4F9F4FAF4FB1E0A1
:100A70003ED0B4E03CD0670F781F891F9A1FA11D9C
:100A8000680F791F8A1F911DA11D6A0F711D811D9D
:100A9000911DA11D20D009F468943F912AE0269F62
:100AA00011243019305D3193DEF6CF010895462FC1
:100AB0004770405D4193B3E00FD0C9F7F6CF462FA2
:100AC0004F70405D4A3318F0495D31FD405241930B
:100AD00002D0A9F7EACFB4E0A695979587957795C8
:100AE0006795BA95C9F700976105710508959B014F
:100AF000AC010A2E06945795479537952795BA95D8
:100B0000C9F7620F731F841F951FA01D0895F894E5
:020B1000FFCF15
:100B120000000002000000008A0100000000010045
:100B2200646973203A202564636D0A00257300000E
:00000001FF
