S011000031302E4453313330322E7372656327
S113000045C0000060C000005EC000005CC000008D
S11300105AC0000058C0000056C0000054C0000080
S113002052C0000050C000004EC000004CC0000090
S11300304AC0000048C0000046C0000044C00000A0
S113004042C0000040C00000AAC100003CC0000043
S11300503AC0000038C0000036C0000034C00000C0
S113006032C0000030C000002EC000002CC00000D0
S11300702AC0000028C0000026C0000024C00000E0
S113008022C0000020C000001EC0000011241FBEBA
S1130090CFEFD0E1DEBFCDBF11E0A0E0B1E0E2EAF6
S11300A0FAE000E00BBF02C007900D92A236B10740
S11300B0D9F724E0A2E6B1E001C01D92A739B20746
S11300C0E1F75BD1ECC49CCF9DEC899F912D112469
S11300D0969596959695392F330F232F220F220F3D
S11300E0230F821B30E1939F800D11240895982FD4
S11300F092959F70990F292F220F220F920F8F70C4
S1130100890F0895E2E6F0E080818E7F808380810C
S11301108160808380818E7F808308951F93CF9335
S1130120DF93182FE1E6F0E0808182608083C0E0F5
S1130130D0E017C0812F90E00C2E02C095958795D2
S11301400A94E2F780FF06C0E2E6F0E08081826074
S1130150808305C0E2E6F0E080818D7F8083D2DF7A
S11301602196C830D10534F3DF91CF911F910895C2
S1130170EF92FF921F93CF93DF937C01E1E6F0E0CF
S113018080818D7F8083C0E0D0E010E010C0019BAF
S113019009C081E090E00C2E02C0880F991F0A94D8
S11301A0E2F7182BC730D10529F0ACDF2196C8300F
S11301B0D1056CF3F7011083DF91CF911F91FF906C
S11301C0EF9008950F931F93CF93DF931F92CDB7B2
S11301D0DEB7198202E610E0F80190819460908302
S11301E08F5F9CDFCE010196C3DFF80180818B7F96
S11301F0808389817CDF0F90DF91CF911F910F91D4
S11302000895CF93DF9384E8DDDFC8E6D1E08A83E5
S113021082E8D8DF898380E8D5DF8883DF91CF91B6
S11302200895CF93DF938CE8CDDFC8E6D1E08E83C9
S113023088E8C8DF8C838AE8C5DF8D8386E8C2DF5F
S11302408B83DF91CF9108951F93CF93DF93162F64
S1130250C2E6D0E098819460988360DF812F34DF18
S11302605DDF88818B7F8883DF91CF911F91089513
S1130270CF93DF93C8E6D1E0688180E8E5DF698148
S113028082E8E2DF6A8184E8DFDF6B8186E8DCDF15
S11302906C8188E8D9DF6D818AE8D6DF6E818CE8CD
S11302A0D3DFDF91CF910895E1E6F0E08081887F8C
S11302B080838081876080830895E2E6F0E0808116
S11302C0887F80838FE39FE10197F1F700C00000EE
S11302D00895E8E6F1E09AE1968386E084839383C7
S11302E0858389E0828382E3818310820895DCDF41
S11302F0F0DFE3DFBDDF85DF94DFA8E6B1E05C91EA
S113030011964C91119712963C9112971596EC9177
S1130310159713962C91139714969C9114971696EF
S11303208C911F925F931F924F931F923F93F0E023
S1130330EE0FFF1FE050FF4F31813F9330813F9319
S11303401F922F931F929F931F928F938CE191E0A2
S11303509F938F93E4D02FEF83ED90E3215080405F
S11303609040E1F700C000008DB79EB740960FB6ED
S1130370F8949EBF0FBE8DBFBECF9BD08EE091E0A0
S11303809093940480939304B2DF2FEF83ED90E372
S1130390215080409040E1F700C00000F5CF1F924B
S11303A00F920FB60F9211240BB60F922F933F9317
S11303B04F935F936F937F938F939F93AF93BF9369
S11303C0EF93FF93CF93DF931F92CDB7DEB78CB13A
S11303D08983809166019091670101962AE030E05B
S11303E0B90176D0FC018091640190916501B90155
S11303F06FD0E817F90709F446C089818A3019F0EB
S113040089818D3021F520916601309167018091B9
S113041062019091630140E5429FF001439FF00D1A
S11304201124EF58FE4FE80FF91F10821092630158
S113043010926201809166019091670101966AE0D1
S113044070E046D090936701809366011CC0609170
S113045066017091670180916201909163019C0132
S11304602F5F3F4F3093630120936201498150E530
S1130470569F9001579F300D11242F583E4FF9017C
S1130480E80FF91F40830F90DF91CF91FF91EF9117
S1130490BF91AF919F918F917F916F915F914F9198
S11304A03F912F910F900BBE0F900FBE0F901F9096
S11304B01895109290008FEC89B98BB182608BB93A
S11304C08AB188698AB908955D9BFECF8CB9089575
S11304D097FB072E16F4009406D077FD08D00BD0B6
S11304E007FC05D03EF4909581959F4F0895709533
S11304F061957F4F0895AA1BBB1B51E107C0AA1F3A
S1130500BB1FA617B70710F0A61BB70B881F991FB0
S11305105A95A9F780959095BC01CD010895CF9384
S1130520DF93CDB7DEB7AE014B5F5F4FFA01619148
S11305307191AF01809193049091940403D0DF9161
S1130540CF9108952F923F924F925F926F927F9234
S11305508F929F92AF92BF92CF92DF92EF92FF92CF
S11305600F931F93CF93DF93CDB7DEB72B970FB6BF
S1130570F894DEBF0FBECDBF6C017B018A01FC0184
S113058017821682838181FFBFC1CE0101963C018F
S1130590F6019381F70193FD859193FF81917F018A
S11305A0882309F4ADC1853239F493FD859193FF15
S11305B081917F01853221F4B60190E0D6D1E8CF54
S11305C0912C212C312CFFE1F315D8F08B3279F0EA
S11305D038F4803279F08332A1F4232D20611DC0D8
S11305E08D3261F0803369F4232D216016C0832D90
S11305F08260382EE32DE4603E2E2AC0F32DF8608D
S11306001DC037FC2DC020ED280F2A3040F08E325B
S1130610B9F436FC75C1232D2064322E19C036FE80
S113062006C08AE0989E200D1124922E11C0EAE0A3
S11306302E9E200D1124222EF32DF0623F2E08C091
S11306408C3621F4832D8068382E02C0883641F41C
S1130650F70193FD859193FF81917F018111B3CFC0
S1130660982F9F7D9554933028F40C5F1F4F9FE380
S113067099830DC0833631F0833771F0833509F0E7
S113068055C020C0F801808189830E5F1F4F8824E4
S11306908394912C530112C02801F2E04F0E511C97
S11306A0F801A080B18036FE03C0692D70E002C05D
S11306B06FEF7FEFC5014ED14C018201F32DFF771F
S11306C03F2E15C0280122E0420E511CF801A080E3
S11306D0B18036FE03C0692D70E002C06FEF7FEF7A
S11306E0C5012DD14C01F32DF0683F2E820133FC5E
S11306F019C0822D90E088169906A0F4B60180E214
S113070090E033D12A94F5CFF50137FC859137FE7B
S113071081915F01B60190E028D121102A9421E053
S1130720821A91088114910479F7E1C0843611F09A
S1130730893639F5F80137FE07C0608171818281FD
S113074093810C5F1F4F08C060817181072E000CDC
S1130750880B990B0E5F1F4FF32DFF763F2E97FFEB
S113076009C090958095709561957F4F8F4F9F4FED
S1130770F0683F2E2AE030E0A30133D1882E86189A
S113078044C0853731F4232D2F7EB22E2AE030E089
S113079025C0932D997FB92E8F36C1F018F4883572
S11307A079F0AEC0803719F0883721F0A9C0E92F5D
S11307B0E061BE2EB4FE0DC0FB2DF460BF2E09C057
S11307C034FE0AC0292F2660B22E06C028E030E08D
S11307D005C020E130E002C020E132E0F801B7FEBC
S11307E007C060817181828193810C5F1F4F06C0B5
S11307F06081718180E090E00E5F1F4FA301F1D012
S1130800882E8618FB2DFF773F2E36FE0DC0232D34
S11308102E7FA22E891458F434FE0BC032FC09C07A
S1130820832D8E7EA82E05C0B82CA32C03C0B82C13
S113083001C0B92CA4FE0FC0FE01E80DF11D80819A
S1130840803321F49A2D997EA92E09C0A2FE06C0F8
S1130850B394B39404C08A2D867809F0B394A3FCAE
S113086010C0A0FE06C0B21480F4280C922C9B1871
S11308700DC0B21458F4B60180E290E076D0B3947F
S1130880F8CFB21418F42B1802C0982C212CA4FE13
S11308900FC0B60180E390E068D0A2FE16C0A1FCB0
S11308A003C088E790E002C088E590E0B6010CC080
S11308B08A2D867851F0A1FE02C08BE201C080E24D
S11308C0A7FC8DE2B60190E050D0891430F4B60153
S11308D080E390E04AD09A94F8CF8A94F301E80D2B
S11308E0F11D8081B60190E040D08110F6CF222026
S11308F009F44ECEB60180E290E037D02A94F7CFC7
S1130900F6018681978102C08FEF9FEF2B960FB679
S1130910F894DEBF0FBECDBFDF91CF911F910F9131
S1130920FF90EF90DF90CF90BF90AF909F908F900B
S11309307F906F905F904F903F902F900895FC01AF
S11309400590615070400110D8F7809590958E0FF6
S11309509F1F0895FC016150704001900110D8F769
S1130960809590958E0F9F1F08950F931F93CF939B
S1130970DF93FB01238121FD03C08FEF9FEF2CC088
S113098022FF16C0468157812481358142175307BF
S113099044F4A081B1819D012F5F3F4F31832083B7
S11309A08C93268137812F5F3F4F3783268314C072
S11309B08B01EC01FB010084F185E02D0995892B65
S11309C0E1F6D80116968D919C911797019617968A
S11309D09C938E931697CE01DF91CF911F910F9127
S11309E00895FA01AA27283051F1203181F1E894C1
S11309F06F936E7F6E5F7F4F8F4F9F4FAF4FB1E00E
S1130A003ED0B4E03CD0670F781F891F9A1FA11D08
S1130A10680F791F8A1F911DA11D6A0F711D811D09
S1130A20911DA11D20D009F468943F912AE0269FCE
S1130A3011243019305D3193DEF6CF010895462F2D
S1130A404770405D4193B3E00FD0C9F7F6CF462F0E
S1130A504F70405D4A3318F0495D31FD4052419377
S1130A6002D0A9F7EACFB4E0A69597958795779534
S1130A706795BA95C9F700976105710508959B01BB
S1130A80AC010A2E06945795479537952795BA9544
S1130A90C9F7620F731F841F951FA01D0895F89452
S1050AA0FFCF82
S1130AA246014A014E01520156015A015E010000FB
S1130AB20002000000006402000000002564EB85CF
S1130AC2842564EC9B942564EC9DBC202573EC9AEC
S1130AD294EC9DBC202564EC8B9C2564EBB68425A8
S1130AE264ECB4880A00ED86A000EC9DBC00EC9B8B
S1130AF29400ED999400EC889800EBAAA900EAB856
S1050B02880065
S9030000FC
