:1000000045C0000060C000005EC000005CC0000091
:100010005AC0000058C0000056C0000054C0000084
:1000200052C0000050C00000CDC200004CC0000013
:100030004AC0000048C0000046C0000044C00000A4
:1000400042C0000040C000003EC000003CC00000B4
:100050003AC0000038C0000036C0000034C00000C4
:1000600032C0000030C000002EC000002CC00000D4
:100070002AC0000028C0000026C0000024C00000E4
:1000800022C0000020C000001EC0000011241FBEBE
:10009000CFEFD0E1DEBFCDBF11E0A0E0B1E0E2EFF5
:1000A000F7E000E00BBF02C007900D92A032B1074D
:1000B000D9F721E0A0E2B1E001C01D92AE34B20751
:1000C000E1F712D394C39CCF81B3877881BB0895A5
:1000D00020B3422F50E021E030E002C0220F331F56
:1000E0006A95E2F7242335232115310519F1FC0126
:1000F000E05EFE4F408141111DC0409124015091AE
:10010000250160912601709127014F30510561054D
:10011000710560F1109224011092250110922601C0
:1001200010922701FC01E05EFE4F21E0208380E079
:1001300090E00895FC01E05EFE4F40814130C9F43B
:10014000232BD1F440912401509125016091260187
:10015000709127014F3051056105710580F0FC0158
:10016000E05EFE4F108281E090E0089580E090E034
:10017000089580E090E0089580E090E0089580E0A8
:1001800090E008959FEF94BB87B3806F87BB95BBCA
:10019000089580912C0190912D018130910501F1FC
:1001A0001CF4892B41F06FC082309105A9F10397AF
:1001B00009F44EC068C080E888BB60913E01709130
:1001C0003F0180914001909141012AE030E040E000
:1001D00050E0D7D2FB01E05FFE4F808185BB53C06A
:1001E00080E488BB60913E0170913F0180914001A5
:1001F000909141012AE030E040E050E0C2D2CA01D3
:10020000B90126E030E040E050E0BBD2FB01E05F06
:10021000FE4F808185BB37C080E288BB60913E0184
:1002200070913F0180914001909141012CE330E0B9
:1002300040E050E0A6D2CA01B9012AE030E040E037
:1002400050E09FD2FB01E05FFE4F808185BB1BC069
:1002500080E188BB60913E0170913F018091400137
:100260009091410128E532E040E050E08AD2CA0195
:10027000B90126E030E040E050E083D2FB01E05FCE
:10028000FE4F808185BB80912C0190912D010196BC
:1002900083709078992324F401978C6F9F6F019657
:1002A00090932D0180932C01089580912A019091C3
:1002B0002B018130910501F11CF4892B41F05FC0C5
:1002C00082309105A9F1039709F446C058C080E82F
:1002D00088BB60913E0170913F01809140019091F7
:1002E00041012AE030E040E050E04BD2FB01E05F0A
:1002F000FE4F808185BB43C080E488BB60913E0196
:1003000070913F0180914001909141012AE030E0DD
:1003100040E050E036D2CA01B90126E030E040E0CA
:1003200050E02FD2FB01E05FFE4F808185BB27C0EC
:1003300080E288BB80913E0190913F01A0914001F5
:10034000B091410187709927AA27BB27FC01E05093
:10035000FF4F808185BB13C080E188BB80913E0147
:1003600090913F01A0914001B09141018770992780
:10037000AA27BB27FC01E85FFE4F808185BB8091E7
:100380002A0190912B01019683709078992324F48F
:1003900001978C6F9F6F019690932B0180932A0198
:1003A0000895CF92DF92EF92FF9260914201709197
:1003B0004301809144019091450120E137E240E002
:1003C00050E0DFD1CA01B90126E030E040E050E062
:1003D000D8D160933A0170933B0180933C01909394
:1003E0003D016091420170914301809144019091DF
:1003F000450128EE33E040E050E0C3D10F2EFAE093
:10040000CF2ED12CE12CF12CF02DCA01B901A7017E
:100410009601B7D16093360170933701809338010C
:1004200090933901609142017091430180914401A0
:100430009091450124E630E040E050E0A2D1CA01AD
:10044000B901A70196019DD16093320170933301E8
:100450008093340190933501609142017091430182
:100460008091440190914501A70196018AD1CA016A
:10047000B901A701960185D160932E0170932F01D8
:10048000809330019093310180912801909129014E
:1004900081309105A9F01CF4892B39F031C08230EC
:1004A0009105C9F0039711F12BC080E888BBE0915A
:1004B0002E01F0912F01E05FFE4F808185BB20C0AF
:1004C00080E488BBE0913201F0913301E05FFE4FA0
:1004D000808185BB15C080E288BBE0913601F09138
:1004E0003701E05FFE4F808185BB0AC080E188BB99
:1004F000E0913A01F0913B01E05FFE4F808185BBC6
:100500008091280190912901019683709078992318
:1005100024F401978C6F9F6F01969093290180932B
:100520002801FF90EF90DF90CF90089581309105E2
:1005300039F08230910531F0892B29F42ADE03C08D
:10054000B4DE01C02EDF80E090E00895892B89F4AD
:100550001092420110924301109244011092450101
:1005600010921B0110921C0110921D0110921E018D
:10057000089581E090E0A0E0B0E080931B019093AB
:100580001C01A0931D01B0931E01089540911B0111
:1005900050911C0160911D0170911E0181E090E05D
:1005A000A0E0B0E0452B462B472B19F080E090E00F
:1005B000DC0180931B0190931C01A0931D01B0935B
:1005C0001E0108951F920F920FB60F9211242F93C0
:1005D0008F939F93AF93BF9381EC84BD809146012D
:1005E00090914701A0914801B09149010196A11D48
:1005F000B11D8093460190934701A0934801B093A9
:1006000049018091460190914701A0914801B09124
:100610004901883E9340A105B105D8F010924601EA
:1006200010924701109248011092490180913E01B9
:1006300090913F01A0914001B09141010196A11D0F
:10064000B11D80933E0190933F01A0934001B09370
:10065000410180911B0190911C01A0911D01B0915D
:100660001E01892B8A2B8B2B41F1809142019091A5
:100670004301A0914401B09145010196A11DB11D16
:100680008093420190934301A0934401B0934501AC
:100690008091420190914301A0914401B0914501A4
:1006A00080369A4EA105B10540F010924201109299
:1006B00043011092440110924501BF91AF919F9167
:1006C0008F912F910F900FBE0F901F90189581EC76
:1006D00084BD85B58B7F85BD85B5846085BD87B7B5
:1006E000806487BF78940895EFDC4CDDF0DF63E031
:1006F00070E080E090E0ECDC892B61F080914C01AF
:1007000090914D01019663E070E028D090934D01E7
:1007100080934C0180914C0190914D0107DF64E082
:1007200070E081E090E0D4DC892B09F02FDF65E0F8
:1007300070E082E090E0CCDC892BC9F281E090E0AF
:1007400020914A0130914B01232B11F080E090E081
:1007500090934B0180934A01F9DEC9CF97FB072E96
:1007600016F4009406D077FD08D02DD007FC05D0F4
:100770003EF4909581959F4F0895709561957F4FB8
:100780000895A1E21A2EAA1BBB1BFD010DC0AA1FD2
:10079000BB1FEE1FFF1FA217B307E407F50720F0EA
:1007A000A21BB30BE40BF50B661F771F881F991F65
:1007B0001A9469F760957095809590959B01AC01AE
:1007C000BD01CF010895AA1BBB1B51E107C0AA1FA1
:1007D000BB1FA617B70710F0A61BB70B881F991FE2
:1007E0005A95A9F780959095BC01CD010895F8948C
:0207F000FFCF39
:1007F200FFFEFDFBF7FFFFFFFEFFFFFFFFF7EFDF4F
:10080200C0F9A4B0999282D880987F0100000000BC
:00000001FF
